{
  "contractName": "Oracle",
  "abi": [
    {
      "inputs": [],
      "stateMutability": "nonpayable",
      "type": "constructor"
    },
    {
      "anonymous": false,
      "inputs": [],
      "name": "__calbackNewData",
      "type": "event"
    },
    {
      "inputs": [],
      "name": "numberAsteroids",
      "outputs": [
        {
          "internalType": "uint256",
          "name": "",
          "type": "uint256"
        }
      ],
      "stateMutability": "view",
      "type": "function",
      "constant": true
    },
    {
      "inputs": [],
      "name": "update",
      "outputs": [],
      "stateMutability": "nonpayable",
      "type": "function"
    },
    {
      "inputs": [
        {
          "internalType": "uint256",
          "name": "_num",
          "type": "uint256"
        }
      ],
      "name": "setNumberAsteroids",
      "outputs": [],
      "stateMutability": "nonpayable",
      "type": "function"
    }
  ],
  "bytecode": "0x608060405234801561001057600080fd5b50336000806101000a81548173ffffffffffffffffffffffffffffffffffffffff021916908373ffffffffffffffffffffffffffffffffffffffff160217905550610314806100606000396000f3fe608060405234801561001057600080fd5b50600436106100415760003560e01c8063402bc6bb14610046578063829400cb14610062578063a2e6204514610080575b600080fd5b610060600480360381019061005b91906101f9565b61008a565b005b61006a610122565b6040516100779190610291565b60405180910390f35b610088610128565b005b60008054906101000a900473ffffffffffffffffffffffffffffffffffffffff1673ffffffffffffffffffffffffffffffffffffffff163373ffffffffffffffffffffffffffffffffffffffff1614610118576040517f08c379a000000000000000000000000000000000000000000000000000000000815260040161010f90610271565b60405180910390fd5b8060018190555050565b60015481565b60008054906101000a900473ffffffffffffffffffffffffffffffffffffffff1673ffffffffffffffffffffffffffffffffffffffff163373ffffffffffffffffffffffffffffffffffffffff16146101b6576040517f08c379a00000000000000000000000000000000000000000000000000000000081526004016101ad90610271565b60405180910390fd5b7f487836118ce6cfa1f22cdfe1ec056d90c2ba0135d9a1cd3cc0599d8b1cc650b760405160405180910390a1565b6000813590506101f3816102c7565b92915050565b60006020828403121561020b57600080fd5b6000610219848285016101e4565b91505092915050565b600061022f600a836102ac565b91507f4f6e6c79206f776e6572000000000000000000000000000000000000000000006000830152602082019050919050565b61026b816102bd565b82525050565b6000602082019050818103600083015261028a81610222565b9050919050565b60006020820190506102a66000830184610262565b92915050565b600082825260208201905092915050565b6000819050919050565b6102d0816102bd565b81146102db57600080fd5b5056fea2646970667358221220283a89f5379f093fbce51a15b6e2f81c4029e9f2f53548367adb52119475ffb364736f6c63430008000033",
  "immutableReferences": {},
  "source": "// SPDX-License-Identifier: MIT\npragma solidity ^0.8.0;\n\ncontract Oracle {\n    \n    // Direccion del owner\n    address owner;\n    \n    // Numero asteroids\n    uint public numberAsteroids;\n    \n    // Evento que reciba datos del oraculo\n    event __calbackNewData();\n    \n    // Constructor \n    constructor () public {\n        owner = msg.sender;\n    }\n    \n    // Restriccion de la ejecucion de las funciones\n    modifier onlyOwner() {\n        require(msg.sender == owner, 'Only owner');\n        _;\n    }\n    \n    // Recibe datos del oraculo\n    function update() public onlyOwner {\n        emit __calbackNewData();\n    }\n    \n    // Funcion para configuracion manual del numero de asteroids \n    function setNumberAsteroids(uint _num) public onlyOwner {\n        numberAsteroids = _num;\n    }\n    \n    \n}",
  "sourcePath": "/Users/joan_amengual/Desktop/Oracle/contracts/Oracle.sol",
  "compiler": {
    "name": "solc",
    "version": "0.8.0+commit.c7dfd78e.Emscripten.clang"
  },
  "schemaVersion": "3.4.2",
  "updatedAt": "2021-09-19T18:00:18.944Z",
  "networkType": "ethereum",
  "devdoc": {
    "kind": "dev",
    "methods": {},
    "version": 1
  },
  "userdoc": {
    "kind": "user",
    "methods": {},
    "version": 1
  }
}