{
  "contractName": "loteria",
  "abi": [
    {
      "inputs": [],
      "stateMutability": "nonpayable",
      "type": "constructor"
    },
    {
      "anonymous": false,
      "inputs": [
        {
          "indexed": false,
          "internalType": "uint256",
          "name": "",
          "type": "uint256"
        },
        {
          "indexed": false,
          "internalType": "address",
          "name": "",
          "type": "address"
        }
      ],
      "name": "ComprandoTokens",
      "type": "event"
    },
    {
      "anonymous": false,
      "inputs": [
        {
          "indexed": false,
          "internalType": "uint256",
          "name": "",
          "type": "uint256"
        },
        {
          "indexed": false,
          "internalType": "address",
          "name": "",
          "type": "address"
        }
      ],
      "name": "boleto_comprado",
      "type": "event"
    },
    {
      "anonymous": false,
      "inputs": [
        {
          "indexed": false,
          "internalType": "uint256",
          "name": "",
          "type": "uint256"
        }
      ],
      "name": "boleto_ganador",
      "type": "event"
    },
    {
      "anonymous": false,
      "inputs": [
        {
          "indexed": false,
          "internalType": "uint256",
          "name": "",
          "type": "uint256"
        },
        {
          "indexed": false,
          "internalType": "address",
          "name": "",
          "type": "address"
        }
      ],
      "name": "tokens_devueltos",
      "type": "event"
    },
    {
      "inputs": [],
      "name": "PrecioBoleto",
      "outputs": [
        {
          "internalType": "uint256",
          "name": "",
          "type": "uint256"
        }
      ],
      "stateMutability": "view",
      "type": "function",
      "constant": true
    },
    {
      "inputs": [],
      "name": "contrato",
      "outputs": [
        {
          "internalType": "address",
          "name": "",
          "type": "address"
        }
      ],
      "stateMutability": "view",
      "type": "function",
      "constant": true
    },
    {
      "inputs": [],
      "name": "direccion_ganador",
      "outputs": [
        {
          "internalType": "address",
          "name": "",
          "type": "address"
        }
      ],
      "stateMutability": "view",
      "type": "function",
      "constant": true
    },
    {
      "inputs": [],
      "name": "owner",
      "outputs": [
        {
          "internalType": "address",
          "name": "",
          "type": "address"
        }
      ],
      "stateMutability": "view",
      "type": "function",
      "constant": true
    },
    {
      "inputs": [
        {
          "internalType": "uint256",
          "name": "_numTokens",
          "type": "uint256"
        }
      ],
      "name": "GeneraTokens",
      "outputs": [],
      "stateMutability": "nonpayable",
      "type": "function"
    },
    {
      "inputs": [
        {
          "internalType": "address",
          "name": "_propietario",
          "type": "address"
        },
        {
          "internalType": "uint256",
          "name": "_numTokens",
          "type": "uint256"
        }
      ],
      "name": "CompraTokens",
      "outputs": [],
      "stateMutability": "payable",
      "type": "function",
      "payable": true
    },
    {
      "inputs": [],
      "name": "TokensDisponibles",
      "outputs": [
        {
          "internalType": "uint256",
          "name": "",
          "type": "uint256"
        }
      ],
      "stateMutability": "view",
      "type": "function",
      "constant": true
    },
    {
      "inputs": [],
      "name": "Bote",
      "outputs": [
        {
          "internalType": "uint256",
          "name": "",
          "type": "uint256"
        }
      ],
      "stateMutability": "view",
      "type": "function",
      "constant": true
    },
    {
      "inputs": [
        {
          "internalType": "address",
          "name": "_propietario",
          "type": "address"
        }
      ],
      "name": "MisTokens",
      "outputs": [
        {
          "internalType": "uint256",
          "name": "",
          "type": "uint256"
        }
      ],
      "stateMutability": "view",
      "type": "function",
      "constant": true
    },
    {
      "inputs": [
        {
          "internalType": "uint256",
          "name": "_boletos",
          "type": "uint256"
        }
      ],
      "name": "CompraBoleto",
      "outputs": [],
      "stateMutability": "nonpayable",
      "type": "function"
    },
    {
      "inputs": [],
      "name": "TusBoletos",
      "outputs": [
        {
          "internalType": "uint256[]",
          "name": "",
          "type": "uint256[]"
        }
      ],
      "stateMutability": "view",
      "type": "function",
      "constant": true
    },
    {
      "inputs": [],
      "name": "GenerarGanador",
      "outputs": [],
      "stateMutability": "nonpayable",
      "type": "function"
    },
    {
      "inputs": [
        {
          "internalType": "uint256",
          "name": "_numTokens",
          "type": "uint256"
        }
      ],
      "name": "DevolverTokens",
      "outputs": [],
      "stateMutability": "payable",
      "type": "function",
      "payable": true
    }
  ],
  "bytecode": "0x60806040526127106004556005805560006008553480156200002057600080fd5b50600454604051620000329062000123565b6200003e919062000142565b604051809103906000f0801580156200005b573d6000803e3d6000fd5b506000806101000a81548173ffffffffffffffffffffffffffffffffffffffff021916908373ffffffffffffffffffffffffffffffffffffffff16021790555033600160006101000a81548173ffffffffffffffffffffffffffffffffffffffff021916908373ffffffffffffffffffffffffffffffffffffffff16021790555030600260006101000a81548173ffffffffffffffffffffffffffffffffffffffff021916908373ffffffffffffffffffffffffffffffffffffffff16021790555062000169565b61109d8062001a1583390190565b6200013c816200015f565b82525050565b600060208201905062000159600083018462000131565b92915050565b6000819050919050565b61189c80620001796000396000f3fe6080604052600436106100c25760003560e01c8063741898611161007f5780638da5cb5b116100595780638da5cb5b14610226578063dd8e728d14610251578063e1a01e671461027c578063fd889ff5146102a7576100c2565b806374189861146101a75780638acb3a21146101d25780638c11ff4c146101fb576100c2565b80630e03c03b146100c75780631246f6e2146101045780631670436c1461012d5780631890154c1461014957806327909f27146101655780635332eee514610190575b600080fd5b3480156100d357600080fd5b506100ee60048036038101906100e9919061108c565b6102d2565b6040516100fb919061169f565b60405180910390f35b34801561011057600080fd5b5061012b6004803603810190610126919061111a565b610385565b005b610147600480360381019061014291906110b5565b6104a6565b005b610163600480360381019061015e919061111a565b610633565b005b34801561017157600080fd5b5061017a6107fd565b604051610187919061169f565b60405180910390f35b34801561019c57600080fd5b506101a5610803565b005b3480156101b357600080fd5b506101bc610ac4565b6040516101c9919061169f565b60405180910390f35b3480156101de57600080fd5b506101f960048036038101906101f4919061111a565b610b97565b005b34801561020757600080fd5b50610210610e4a565b60405161021d919061159d565b60405180910390f35b34801561023257600080fd5b5061023b610edf565b6040516102489190611522565b60405180910390f35b34801561025d57600080fd5b50610266610f05565b6040516102739190611522565b60405180910390f35b34801561028857600080fd5b50610291610f2b565b60405161029e9190611522565b60405180910390f35b3480156102b357600080fd5b506102bc610f51565b6040516102c9919061169f565b60405180910390f35b60008060009054906101000a900473ffffffffffffffffffffffffffffffffffffffff1673ffffffffffffffffffffffffffffffffffffffff166370a08231836040518263ffffffff1660e01b815260040161032e9190611522565b60206040518083038186803b15801561034657600080fd5b505afa15801561035a573d6000803e3d6000fd5b505050506040513d601f19601f8201168201806040525081019061037e9190611143565b9050919050565b33600160009054906101000a900473ffffffffffffffffffffffffffffffffffffffff1673ffffffffffffffffffffffffffffffffffffffff168173ffffffffffffffffffffffffffffffffffffffff1614610416576040517f08c379a000000000000000000000000000000000000000000000000000000000815260040161040d9061165f565b60405180910390fd5b6000809054906101000a900473ffffffffffffffffffffffffffffffffffffffff1673ffffffffffffffffffffffffffffffffffffffff16634ee22adf836040518263ffffffff1660e01b8152600401610470919061169f565b600060405180830381600087803b15801561048a57600080fd5b505af115801561049e573d6000803e3d6000fd5b505050505050565b60006104b182611024565b9050803410156104f6576040517f08c379a00000000000000000000000000000000000000000000000000000000081526004016104ed9061167f565b60405180910390fd5b6000610500610f51565b905080831115610545576040517f08c379a000000000000000000000000000000000000000000000000000000000815260040161053c9061163f565b60405180910390fd5b6000809054906101000a900473ffffffffffffffffffffffffffffffffffffffff1673ffffffffffffffffffffffffffffffffffffffff1663a9059cbb85856040518363ffffffff1660e01b81526004016105a1929190611574565b602060405180830381600087803b1580156105bb57600080fd5b505af11580156105cf573d6000803e3d6000fd5b505050506040513d601f19601f820116820180604052508101906105f391906110f1565b507fc5d46be962adb867acf29dce93ab611e9064bffee951e4db9e52c693f73f4c3883856040516106259291906116ba565b60405180910390a150505050565b60008111610676576040517f08c379a000000000000000000000000000000000000000000000000000000000815260040161066d906115df565b60405180910390fd5b61067f336102d2565b8111156106c1576040517f08c379a00000000000000000000000000000000000000000000000000000000081526004016106b8906115ff565b60405180910390fd5b6000809054906101000a900473ffffffffffffffffffffffffffffffffffffffff1673ffffffffffffffffffffffffffffffffffffffff1663f7a1d1943330846040518463ffffffff1660e01b815260040161071f9392919061153d565b602060405180830381600087803b15801561073957600080fd5b505af115801561074d573d6000803e3d6000fd5b505050506040513d601f19601f8201168201806040525081019061077191906110f1565b503373ffffffffffffffffffffffffffffffffffffffff166108fc61079583611024565b9081150290604051600060405180830381858888f193505050501580156107c0573d6000803e3d6000fd5b507fedb4e62d28b4facd6d91f70625ac1ea2c1a9cac0ecc3e638b50633575d818a4e81336040516107f29291906116e3565b60405180910390a150565b60055481565b33600160009054906101000a900473ffffffffffffffffffffffffffffffffffffffff1673ffffffffffffffffffffffffffffffffffffffff168173ffffffffffffffffffffffffffffffffffffffff1614610894576040517f08c379a000000000000000000000000000000000000000000000000000000000815260040161088b9061165f565b60405180910390fd5b6000600980549050116108dc576040517f08c379a00000000000000000000000000000000000000000000000000000000081526004016108d39061161f565b60405180910390fd5b60006009805490509050600081426040516020016108fa91906114ca565b6040516020818303038152906040528051906020012060001c8161091a57fe5b06905060006009828154811061092c57fe5b906000526020600020015490507f7ae8aa8a76009e9379a432b67d892b6006479447de6892c862ce780785a2387d81604051610968919061169f565b60405180910390a16007600082815260200190815260200160002060009054906101000a900473ffffffffffffffffffffffffffffffffffffffff16600360006101000a81548173ffffffffffffffffffffffffffffffffffffffff021916908373ffffffffffffffffffffffffffffffffffffffff1602179055506000809054906101000a900473ffffffffffffffffffffffffffffffffffffffff1673ffffffffffffffffffffffffffffffffffffffff1663f7a1d19433600360009054906101000a900473ffffffffffffffffffffffffffffffffffffffff16610a4d610ac4565b6040518463ffffffff1660e01b8152600401610a6b9392919061153d565b602060405180830381600087803b158015610a8557600080fd5b505af1158015610a99573d6000803e3d6000fd5b505050506040513d601f19601f82011682018060405250810190610abd91906110f1565b5050505050565b60008060009054906101000a900473ffffffffffffffffffffffffffffffffffffffff1673ffffffffffffffffffffffffffffffffffffffff166370a08231600160009054906101000a900473ffffffffffffffffffffffffffffffffffffffff166040518263ffffffff1660e01b8152600401610b429190611522565b60206040518083038186803b158015610b5a57600080fd5b505afa158015610b6e573d6000803e3d6000fd5b505050506040513d601f19601f82011682018060405250810190610b929190611143565b905090565b600060055482029050610ba9336102d2565b811115610beb576040517f08c379a0000000000000000000000000000000000000000000000000000000008152600401610be2906115bf565b60405180910390fd5b6000809054906101000a900473ffffffffffffffffffffffffffffffffffffffff1673ffffffffffffffffffffffffffffffffffffffff1663f7a1d19433600160009054906101000a900473ffffffffffffffffffffffffffffffffffffffff16846040518463ffffffff1660e01b8152600401610c6b9392919061153d565b602060405180830381600087803b158015610c8557600080fd5b505af1158015610c99573d6000803e3d6000fd5b505050506040513d601f19601f82011682018060405250810190610cbd91906110f1565b5060008090505b82811015610e455760006127104233600854604051602001610ce8939291906114e5565b6040516020818303038152906040528051906020012060001c81610d0857fe5b069050600860008154809291906001019190505550600660003373ffffffffffffffffffffffffffffffffffffffff1673ffffffffffffffffffffffffffffffffffffffff1681526020019081526020016000208190806001815401808255809150506001900390600052602060002001600090919091909150556009819080600181540180825580915050600190039060005260206000200160009091909190915055336007600083815260200190815260200160002060006101000a81548173ffffffffffffffffffffffffffffffffffffffff021916908373ffffffffffffffffffffffffffffffffffffffff1602179055507f3dc84428040dff15296d25a054aea6c52a38e013683cf8175ec47e9849d101fe8133604051610e2f9291906116e3565b60405180910390a1508080600101915050610cc4565b505050565b6060600660003373ffffffffffffffffffffffffffffffffffffffff1673ffffffffffffffffffffffffffffffffffffffff168152602001908152602001600020805480602002602001604051908101604052809291908181526020018280548015610ed557602002820191906000526020600020905b815481526020019060010190808311610ec1575b5050505050905090565b600160009054906101000a900473ffffffffffffffffffffffffffffffffffffffff1681565b600360009054906101000a900473ffffffffffffffffffffffffffffffffffffffff1681565b600260009054906101000a900473ffffffffffffffffffffffffffffffffffffffff1681565b60008060009054906101000a900473ffffffffffffffffffffffffffffffffffffffff1673ffffffffffffffffffffffffffffffffffffffff166370a08231600260009054906101000a900473ffffffffffffffffffffffffffffffffffffffff166040518263ffffffff1660e01b8152600401610fcf9190611522565b60206040518083038186803b158015610fe757600080fd5b505afa158015610ffb573d6000803e3d6000fd5b505050506040513d601f19601f8201168201806040525081019061101f9190611143565b905090565b6000670de0b6b3a764000082029050919050565b60008135905061104781611821565b92915050565b60008151905061105c81611838565b92915050565b6000813590506110718161184f565b92915050565b6000815190506110868161184f565b92915050565b60006020828403121561109e57600080fd5b60006110ac84828501611038565b91505092915050565b600080604083850312156110c857600080fd5b60006110d685828601611038565b92505060206110e785828601611062565b9150509250929050565b60006020828403121561110357600080fd5b60006111118482850161104d565b91505092915050565b60006020828403121561112c57600080fd5b600061113a84828501611062565b91505092915050565b60006020828403121561115557600080fd5b600061116384828501611077565b91505092915050565b60006111788383611495565b60208301905092915050565b61118d816117b0565b82525050565b6111a461119f82611768565b6117e6565b82525050565b6111b381611756565b82525050565b60006111c48261171c565b6111ce8185611734565b93506111d98361170c565b8060005b8381101561120a5781516111f1888261116c565b97506111fc83611727565b9250506001810190506111dd565b5085935050505092915050565b6000611224601d83611745565b91507f4e656365736974617320636f6d70726172206d617320746f6b656e732e0000006000830152602082019050919050565b6000611264603083611745565b91507f4e6563657369746173206465766f6c76657220756e206e756d65726f20706f7360008301527f697469766f20646520746f6b656e732e000000000000000000000000000000006020830152604082019050919050565b60006112ca602983611745565b91507f4e6f207469656e6573206c6f7320746f6b656e7320717565206465736561732060008301527f6465766f6c7665722e00000000000000000000000000000000000000000000006020830152604082019050919050565b6000611330601883611745565b91507f4e6f2068617920626f6c65746f7320636f6d707261646f7300000000000000006000830152602082019050919050565b6000611370602483611745565b91507f436f6d70726120756e206e756d65726f20646520546f6b656e7320616465637560008301527f61646f2e000000000000000000000000000000000000000000000000000000006020830152604082019050919050565b60006113d6602e83611745565b91507f4e6f207469656e6573207065726d69736f73207061726120656a65637574617260008301527f20657374612066756e63696f6e2e0000000000000000000000000000000000006020830152604082019050919050565b600061143c602a83611745565b91507f436f6d707261206d656e6f7320546f6b656e73206f207061676120636f6e206d60008301527f6173204574686572732e000000000000000000000000000000000000000000006020830152604082019050919050565b61149e816117a6565b82525050565b6114ad816117a6565b82525050565b6114c46114bf826117a6565b61180a565b82525050565b60006114d682846114b3565b60208201915081905092915050565b60006114f182866114b3565b6020820191506115018285611193565b60148201915061151182846114b3565b602082019150819050949350505050565b600060208201905061153760008301846111aa565b92915050565b60006060820190506115526000830186611184565b61155f60208301856111aa565b61156c60408301846114a4565b949350505050565b600060408201905061158960008301856111aa565b61159660208301846114a4565b9392505050565b600060208201905081810360008301526115b781846111b9565b905092915050565b600060208201905081810360008301526115d881611217565b9050919050565b600060208201905081810360008301526115f881611257565b9050919050565b60006020820190508181036000830152611618816112bd565b9050919050565b6000602082019050818103600083015261163881611323565b9050919050565b6000602082019050818103600083015261165881611363565b9050919050565b60006020820190508181036000830152611678816113c9565b9050919050565b600060208201905081810360008301526116988161142f565b9050919050565b60006020820190506116b460008301846114a4565b92915050565b60006040820190506116cf60008301856114a4565b6116dc60208301846111aa565b9392505050565b60006040820190506116f860008301856114a4565b6117056020830184611184565b9392505050565b6000819050602082019050919050565b600081519050919050565b6000602082019050919050565b600082825260208201905092915050565b600082825260208201905092915050565b600061176182611786565b9050919050565b600061177382611786565b9050919050565b60008115159050919050565b600073ffffffffffffffffffffffffffffffffffffffff82169050919050565b6000819050919050565b60006117bb826117c2565b9050919050565b60006117cd826117d4565b9050919050565b60006117df82611786565b9050919050565b60006117f1826117f8565b9050919050565b600061180382611814565b9050919050565b6000819050919050565b60008160601b9050919050565b61182a81611756565b811461183557600080fd5b50565b6118418161177a565b811461184c57600080fd5b50565b611858816117a6565b811461186357600080fd5b5056fea26469706673582212202bdd6e351f5e113e092581715cc9829d3f0f6e74a872e95b98cd5358cecc3ebc64736f6c63430006080033608060405234801561001057600080fd5b5060405161109d38038061109d83398181016040528101906100329190610099565b806002819055506002546000803373ffffffffffffffffffffffffffffffffffffffff1673ffffffffffffffffffffffffffffffffffffffff16815260200190815260200160002081905550506100e3565b600081519050610093816100cc565b92915050565b6000602082840312156100ab57600080fd5b60006100b984828501610084565b91505092915050565b6000819050919050565b6100d5816100c2565b81146100e057600080fd5b50565b610fab806100f26000396000f3fe608060405234801561001057600080fd5b50600436106100a95760003560e01c80634ee22adf116100715780634ee22adf1461016857806370a082311461018457806395d89b41146101b4578063a9059cbb146101d2578063dd62ed3e14610202578063f7a1d19414610232576100a9565b806306fdde03146100ae578063095ea7b3146100cc57806318160ddd146100fc57806323b872dd1461011a578063313ce5671461014a575b600080fd5b6100b6610262565b6040516100c39190610e3a565b60405180910390f35b6100e660048036038101906100e19190610d54565b61029b565b6040516100f39190610e1f565b60405180910390f35b61010461038d565b6040516101119190610e5c565b60405180910390f35b610134600480360381019061012f9190610d05565b610397565b6040516101419190610e1f565b60405180910390f35b610152610712565b60405161015f9190610e77565b60405180910390f35b610182600480360381019061017d9190610d90565b610717565b005b61019e60048036038101906101999190610ca0565b610776565b6040516101ab9190610e5c565b60405180910390f35b6101bc6107be565b6040516101c99190610e3a565b60405180910390f35b6101ec60048036038101906101e79190610d54565b6107f7565b6040516101f99190610e1f565b60405180910390f35b61021c60048036038101906102179190610cc9565b6109d9565b6040516102299190610e5c565b60405180910390f35b61024c60048036038101906102479190610d05565b610a60565b6040516102599190610e1f565b60405180910390f35b6040518060400160405280600a81526020017f455243323042617369630000000000000000000000000000000000000000000081525081565b600081600160003373ffffffffffffffffffffffffffffffffffffffff1673ffffffffffffffffffffffffffffffffffffffff16815260200190815260200160002060008573ffffffffffffffffffffffffffffffffffffffff1673ffffffffffffffffffffffffffffffffffffffff168152602001908152602001600020819055508273ffffffffffffffffffffffffffffffffffffffff163373ffffffffffffffffffffffffffffffffffffffff167f8c5be1e5ebec7d5bd14f71427d1e84f3dd0314c0f7b2291e5b200ac8c7c3b9258460405161037b9190610e5c565b60405180910390a36001905092915050565b6000600254905090565b60008060008573ffffffffffffffffffffffffffffffffffffffff1673ffffffffffffffffffffffffffffffffffffffff168152602001908152602001600020548211156103e457600080fd5b600160008573ffffffffffffffffffffffffffffffffffffffff1673ffffffffffffffffffffffffffffffffffffffff16815260200190815260200160002060003373ffffffffffffffffffffffffffffffffffffffff1673ffffffffffffffffffffffffffffffffffffffff1681526020019081526020016000205482111561046d57600080fd5b6104be826000808773ffffffffffffffffffffffffffffffffffffffff1673ffffffffffffffffffffffffffffffffffffffff16815260200190815260200160002054610c4390919063ffffffff16565b6000808673ffffffffffffffffffffffffffffffffffffffff1673ffffffffffffffffffffffffffffffffffffffff1681526020019081526020016000208190555061058f82600160008773ffffffffffffffffffffffffffffffffffffffff1673ffffffffffffffffffffffffffffffffffffffff16815260200190815260200160002060003373ffffffffffffffffffffffffffffffffffffffff1673ffffffffffffffffffffffffffffffffffffffff16815260200190815260200160002054610c4390919063ffffffff16565b600160008673ffffffffffffffffffffffffffffffffffffffff1673ffffffffffffffffffffffffffffffffffffffff16815260200190815260200160002060003373ffffffffffffffffffffffffffffffffffffffff1673ffffffffffffffffffffffffffffffffffffffff16815260200190815260200160002081905550610660826000808673ffffffffffffffffffffffffffffffffffffffff1673ffffffffffffffffffffffffffffffffffffffff16815260200190815260200160002054610c5a90919063ffffffff16565b6000808573ffffffffffffffffffffffffffffffffffffffff1673ffffffffffffffffffffffffffffffffffffffff168152602001908152602001600020819055508273ffffffffffffffffffffffffffffffffffffffff168473ffffffffffffffffffffffffffffffffffffffff167fddf252ad1be2c89b69c2b068fc378daa952ba7f163c4a11628f55a4df523b3ef846040516106ff9190610e5c565b60405180910390a3600190509392505050565b600281565b80600260008282540192505081905550806000803373ffffffffffffffffffffffffffffffffffffffff1673ffffffffffffffffffffffffffffffffffffffff1681526020019081526020016000206000828254019250508190555050565b60008060008373ffffffffffffffffffffffffffffffffffffffff1673ffffffffffffffffffffffffffffffffffffffff168152602001908152602001600020549050919050565b6040518060400160405280600981526020017f4a424a2d544f4b454e000000000000000000000000000000000000000000000081525081565b60008060003373ffffffffffffffffffffffffffffffffffffffff1673ffffffffffffffffffffffffffffffffffffffff1681526020019081526020016000205482111561084457600080fd5b610895826000803373ffffffffffffffffffffffffffffffffffffffff1673ffffffffffffffffffffffffffffffffffffffff16815260200190815260200160002054610c4390919063ffffffff16565b6000803373ffffffffffffffffffffffffffffffffffffffff1673ffffffffffffffffffffffffffffffffffffffff16815260200190815260200160002081905550610928826000808673ffffffffffffffffffffffffffffffffffffffff1673ffffffffffffffffffffffffffffffffffffffff16815260200190815260200160002054610c5a90919063ffffffff16565b6000808573ffffffffffffffffffffffffffffffffffffffff1673ffffffffffffffffffffffffffffffffffffffff168152602001908152602001600020819055508273ffffffffffffffffffffffffffffffffffffffff163373ffffffffffffffffffffffffffffffffffffffff167fddf252ad1be2c89b69c2b068fc378daa952ba7f163c4a11628f55a4df523b3ef846040516109c79190610e5c565b60405180910390a36001905092915050565b6000600160008473ffffffffffffffffffffffffffffffffffffffff1673ffffffffffffffffffffffffffffffffffffffff16815260200190815260200160002060008373ffffffffffffffffffffffffffffffffffffffff1673ffffffffffffffffffffffffffffffffffffffff16815260200190815260200160002054905092915050565b60008060008573ffffffffffffffffffffffffffffffffffffffff1673ffffffffffffffffffffffffffffffffffffffff16815260200190815260200160002054821115610aad57600080fd5b610afe826000808773ffffffffffffffffffffffffffffffffffffffff1673ffffffffffffffffffffffffffffffffffffffff16815260200190815260200160002054610c4390919063ffffffff16565b6000808673ffffffffffffffffffffffffffffffffffffffff1673ffffffffffffffffffffffffffffffffffffffff16815260200190815260200160002081905550610b91826000808673ffffffffffffffffffffffffffffffffffffffff1673ffffffffffffffffffffffffffffffffffffffff16815260200190815260200160002054610c5a90919063ffffffff16565b6000808573ffffffffffffffffffffffffffffffffffffffff1673ffffffffffffffffffffffffffffffffffffffff168152602001908152602001600020819055508273ffffffffffffffffffffffffffffffffffffffff168473ffffffffffffffffffffffffffffffffffffffff167fddf252ad1be2c89b69c2b068fc378daa952ba7f163c4a11628f55a4df523b3ef84604051610c309190610e5c565b60405180910390a3600190509392505050565b600082821115610c4f57fe5b818303905092915050565b600080828401905083811015610c6c57fe5b8091505092915050565b600081359050610c8581610f47565b92915050565b600081359050610c9a81610f5e565b92915050565b600060208284031215610cb257600080fd5b6000610cc084828501610c76565b91505092915050565b60008060408385031215610cdc57600080fd5b6000610cea85828601610c76565b9250506020610cfb85828601610c76565b9150509250929050565b600080600060608486031215610d1a57600080fd5b6000610d2886828701610c76565b9350506020610d3986828701610c76565b9250506040610d4a86828701610c8b565b9150509250925092565b60008060408385031215610d6757600080fd5b6000610d7585828601610c76565b9250506020610d8685828601610c8b565b9150509250929050565b600060208284031215610da257600080fd5b6000610db084828501610c8b565b91505092915050565b610dc281610ec0565b82525050565b6000610dd382610e92565b610ddd8185610e9d565b9350610ded818560208601610f03565b610df681610f36565b840191505092915050565b610e0a81610eec565b82525050565b610e1981610ef6565b82525050565b6000602082019050610e346000830184610db9565b92915050565b60006020820190508181036000830152610e548184610dc8565b905092915050565b6000602082019050610e716000830184610e01565b92915050565b6000602082019050610e8c6000830184610e10565b92915050565b600081519050919050565b600082825260208201905092915050565b6000610eb982610ecc565b9050919050565b60008115159050919050565b600073ffffffffffffffffffffffffffffffffffffffff82169050919050565b6000819050919050565b600060ff82169050919050565b60005b83811015610f21578082015181840152602081019050610f06565b83811115610f30576000848401525b50505050565b6000601f19601f8301169050919050565b610f5081610eae565b8114610f5b57600080fd5b50565b610f6781610eec565b8114610f7257600080fd5b5056fea2646970667358221220a12872d07afa2b15e326b5d52933adb970ed6ad6c5b8a5325538436b5a5a36f064736f6c63430006080033",
  "immutableReferences": {},
  "source": "// SPDX-License-Identifier: MIT\npragma solidity >0.4.4 <0.8.0;\npragma experimental ABIEncoderV2;\nimport \"./ERC20.sol\";\n\n\ncontract loteria {\n    \n    // Instancia del contrato Token \n    ERC20Basic private token;\n    \n    // Direcciones \n    address public owner;\n    address public contrato;\n    address public direccion_ganador;\n    \n    // Numero de tokens a crear \n    uint tokens_creados = 10000;\n    \n    // Evento de compra de tokens \n    event ComprandoTokens (uint, address);\n    \n    constructor () public {\n        token = new ERC20Basic(tokens_creados);\n        owner = msg.sender;\n        contrato = address(this);\n    }\n    \n    // ----------------------------------------  TOKEN ---------------------------------------- \n    \n    // Establecer el precio de lo tokens en ethers \n    function PrecioTokens(uint _numTokens) internal pure returns (uint){\n        return _numTokens*(1 ether);\n    }\n    \n    // Generar mas Tokens por la Loteria \n    function GeneraTokens(uint _numTokens) public Unicamente(msg.sender){\n        token.increaseTotalSuply(_numTokens);\n    }\n    \n    // Modificador para hacer funciones solamente accesibles por el owner del contrato\n    modifier Unicamente(address _direccion) {\n        require (_direccion == owner, \"No tienes permisos para ejecutar esta funcion.\");\n        _;\n    }\n    \n    // Comprar Tokens para comprar boletos/tickets para la loteria \n    function CompraTokens(address _propietario, uint _numTokens) public payable {\n        // Calcular el coste de los tokens \n        uint coste = PrecioTokens(_numTokens);\n        // Se requiere que el valor de ethers pagados sea equivalente al coste \n        require (msg.value >= coste, \"Compra menos Tokens o paga con mas Ethers.\");\n        // Obtener el balance de Tokens del contrato \n        uint Balance = TokensDisponibles();\n        // Filtro para evaluar los tokens a comprar con los tokens disponibles \n        require (_numTokens <= Balance, \"Compra un numero de Tokens adecuado.\");\n        // Tranferencia de Tokens al comprador \n        token.transfer(_propietario, _numTokens);\n        // Emitir el evento de compra tokens \n        emit ComprandoTokens(_numTokens, _propietario);\n    }\n    \n    // Balance de tokens en el contrato de loteria \n    function TokensDisponibles() public view returns (uint) {\n        return token.balanceOf(contrato);\n    }\n    \n    // Obtener el balance de tokens acumulados en el Bote \n    function Bote() public view returns (uint) {\n        return token.balanceOf(owner);\n    }\n    \n    // Balance de Tokens de una persona \n    function MisTokens(address _propietario) public view returns (uint) {\n        return token.balanceOf(_propietario);\n    }\n    \n    // ----------------------------------------  LOTERIA ----------------------------------------\n    \n    // Precio del boleto en Tokens \n    uint public PrecioBoleto = 5;\n    // Relacion entre la persona que compra los boletos y los numeros de los boletos\n    mapping (address => uint []) idPersona_boletos;\n    // Relacion necesaria para identificar al ganador \n    mapping (uint => address) ADN_boleto;\n    // Numero aleatorio \n    uint randNonce = 0;\n    // Boletos generados \n    uint [] boletos_comprados;\n    // Eventos \n    event boleto_comprado(uint,address);   // Evento cuando se compra un boleto\n    event boleto_ganador(uint);            // Evento del ganador\n    event tokens_devueltos(uint,address);  // Evento para devolver tokens\n    \n    // Funcion para comprar boletos de loteria \n    function CompraBoleto(uint _boletos) public {\n        // Precio total de los boletos a comprar\n        uint precio_total = _boletos*PrecioBoleto;\n        // Filtrado de los tokens a pagar \n        require (precio_total <= MisTokens(msg.sender), \"Necesitas comprar mas tokens.\");\n        // Transferencia de tokens al owner -> bote/premio\n        /* El cliente paga la atraccion en Tokens:\n        - Ha sido necesario crear una funcion en ERC20.sol con el nombre de: 'transferencia_loteria'\n        debido a que en caso de usar el Transfer o TransferFrom las direcciones que se escogian \n        para realizar la transccion eran equivocadas. Ya que el msg.sender que recibia el metodo Transfer o\n        TransferFrom era la direccion del contrato. Y debe ser la direccion de la persona fisia.\n        */\n        token.transferencia_loteria(msg.sender, owner, precio_total);\n        /*\n        Lo que esto haria es tomar la marca de tiempo now, el msg.sender y un nonce\n        (un numero que solo se utiliza una vez, para que no ejecutemos dos veces la misma \n        funcion de hash con los mismos parametros de entrada) en incremento.\n        Luego se utiliza keccak256 para convertir estas entradas a un hash aleatorio, \n        convertir ese hash a un uint y luego utilizamos % 10000 para tomar los ultimos 4 digitos.\n        Dando un valor aleatorio entre 0 - 9999.\n        */\n        for (uint i = 0; i < _boletos; i++) {\n            uint random = uint(keccak256(abi.encodePacked(now, msg.sender, randNonce))) % 10000;\n            randNonce++;\n            // Almacenamos los datos de los boletos \n            idPersona_boletos[msg.sender].push(random);\n            // Numero de boleto comprado\n            boletos_comprados.push(random);\n            // Asignacion del ADN del boleto para tener un ganador \n            ADN_boleto[random] = msg.sender;\n            // Emision del evento \n            emit boleto_comprado(random , msg.sender);\n        }\n        \n    }\n    \n    // Visualizar el numero de boletos de una persona\n    function TusBoletos() public view returns (uint [] memory){\n        return idPersona_boletos[msg.sender];\n    }\n    \n    // Funcion para generar un ganador y ingresarle los Tokens \n    function GenerarGanador() public Unicamente(msg.sender) {\n        // Debe haber boletos comprados para generar un ganador \n        require(boletos_comprados.length > 0, \"No hay boletos comprados\");\n        // Declaracion de la longitud del array \n        uint longitud = boletos_comprados.length;\n        // Aleatoriamente elijo un numero entre: 0 - Longitud \n        // 1 - Eleccion de una posicion aleatoria del array \n        uint posicion_array = uint(uint(keccak256(abi.encodePacked(now))) % longitud);\n        // 2- Seleccion del numero aleatorio mediante la posicion del array aleatoria\n        uint eleccion = boletos_comprados[posicion_array];\n        // Emision del evento del ganador \n        emit boleto_ganador(eleccion);\n        // Recuperar la direccion del ganador \n        direccion_ganador = ADN_boleto[eleccion];\n        // Enviarle los tokens del premio al ganador \n        token.transferencia_loteria(msg.sender, direccion_ganador, Bote());\n    }\n    \n    // Devolucion de los tokens \n    function DevolverTokens(uint _numTokens) public payable {\n        // El numero de tokens a devolver debe ser mayor a 0 \n        require(_numTokens > 0 , \"Necesitas devolver un numero positivo de tokens.\");\n        // El usuario/cliente debe tener los tokens que desea devolver \n        require (_numTokens <= MisTokens(msg.sender), \"No tienes los tokens que deseas devolver.\");\n        // DEVOLUCION:\n        // 1. El cliente devuelva los tokens\n        // 2. La loteria paga los tokens devueltos en ethers\n        token.transferencia_loteria(msg.sender, address(this), _numTokens);\n        msg.sender.transfer(PrecioTokens(_numTokens));\n        // Emision del evento \n        emit tokens_devueltos(_numTokens, msg.sender);\n    }\n    \n}",
  "sourcePath": "/Users/joan_amengual/Desktop/Loteria/src/contracts/loteria.sol",
  "compiler": {
    "name": "solc",
    "version": "0.6.8+commit.0bbfe453.Emscripten.clang"
  },
  "schemaVersion": "3.4.2",
  "updatedAt": "2021-10-01T11:58:03.532Z",
  "networkType": "ethereum",
  "devdoc": {
    "methods": {}
  },
  "userdoc": {
    "methods": {}
  }
}