{
  "contractName": "notas",
  "abi": [
    {
      "inputs": [],
      "stateMutability": "nonpayable",
      "type": "constructor"
    },
    {
      "anonymous": false,
      "inputs": [
        {
          "indexed": false,
          "internalType": "bytes32",
          "name": "",
          "type": "bytes32"
        }
      ],
      "name": "alumno_evaluado",
      "type": "event"
    },
    {
      "anonymous": false,
      "inputs": [
        {
          "indexed": false,
          "internalType": "string",
          "name": "",
          "type": "string"
        }
      ],
      "name": "evento_revision",
      "type": "event"
    },
    {
      "inputs": [],
      "name": "profesor",
      "outputs": [
        {
          "internalType": "address",
          "name": "",
          "type": "address"
        }
      ],
      "stateMutability": "view",
      "type": "function"
    },
    {
      "inputs": [
        {
          "internalType": "string",
          "name": "_idAlumno",
          "type": "string"
        },
        {
          "internalType": "uint256",
          "name": "_nota",
          "type": "uint256"
        }
      ],
      "name": "Evaluar",
      "outputs": [],
      "stateMutability": "nonpayable",
      "type": "function"
    },
    {
      "inputs": [
        {
          "internalType": "string",
          "name": "_idAlumno",
          "type": "string"
        }
      ],
      "name": "VerNotas",
      "outputs": [
        {
          "internalType": "uint256",
          "name": "",
          "type": "uint256"
        }
      ],
      "stateMutability": "view",
      "type": "function"
    },
    {
      "inputs": [
        {
          "internalType": "string",
          "name": "_idAlumno",
          "type": "string"
        }
      ],
      "name": "Revision",
      "outputs": [],
      "stateMutability": "nonpayable",
      "type": "function"
    },
    {
      "inputs": [],
      "name": "VerRevisiones",
      "outputs": [
        {
          "internalType": "string[]",
          "name": "",
          "type": "string[]"
        }
      ],
      "stateMutability": "view",
      "type": "function"
    }
  ],
  "bytecode": "0x608060405234801561001057600080fd5b50336000806101000a81548173ffffffffffffffffffffffffffffffffffffffff021916908373ffffffffffffffffffffffffffffffffffffffff160217905550610a46806100606000396000f3fe608060405234801561001057600080fd5b50600436106100575760003560e01c8063040d9f601461005c5780632cd22cd81461007857806333731af614610094578063df096576146100c4578063f22044e6146100e2575b600080fd5b610076600480360381019061007191906105b7565b610100565b005b610092600480360381019061008d9190610576565b61020f565b005b6100ae60048036038101906100a99190610576565b610285565b6040516100bb919061087b565b60405180910390f35b6100cc6102d3565b6040516100d991906107e1565b60405180910390f35b6100ea6102f7565b6040516100f791906107fc565b60405180910390f35b3360008054906101000a900473ffffffffffffffffffffffffffffffffffffffff1673ffffffffffffffffffffffffffffffffffffffff168173ffffffffffffffffffffffffffffffffffffffff161461018f576040517f08c379a00000000000000000000000000000000000000000000000000000000081526004016101869061085b565b60405180910390fd5b6000836040516020016101a291906107ca565b6040516020818303038152906040528051906020012090508260016000838152602001908152602001600020819055507f9129eeeb684507aca017f10030b70e5bf86d129f417fcc5840348a957eb12cee81604051610201919061081e565b60405180910390a150505050565b60028190806001815401808255809150506001900390600052602060002001600090919091909150908051906020019061024a929190610470565b507fafd73f39162aa4c0421f362f3a3d26f44b23c73253256cfc1c68794b0973e0a08160405161027a9190610839565b60405180910390a150565b6000808260405160200161029991906107ca565b6040516020818303038152906040528051906020012090506000600160008381526020019081526020016000205490508092505050919050565b60008054906101000a900473ffffffffffffffffffffffffffffffffffffffff1681565b60603360008054906101000a900473ffffffffffffffffffffffffffffffffffffffff1673ffffffffffffffffffffffffffffffffffffffff168173ffffffffffffffffffffffffffffffffffffffff1614610388576040517f08c379a000000000000000000000000000000000000000000000000000000000815260040161037f9061085b565b60405180910390fd5b6002805480602002602001604051908101604052809291908181526020016000905b82821015610466578382906000526020600020018054600181600116156101000203166002900480601f0160208091040260200160405190810160405280929190818152602001828054600181600116156101000203166002900480156104525780601f1061042757610100808354040283529160200191610452565b820191906000526020600020905b81548152906001019060200180831161043557829003601f168201915b5050505050815260200190600101906103aa565b5050505091505090565b828054600181600116156101000203166002900490600052602060002090601f016020900481019282601f106104b157805160ff19168380011785556104df565b828001600101855582156104df579182015b828111156104de5782518255916020019190600101906104c3565b5b5090506104ec91906104f0565b5090565b5b808211156105095760008160009055506001016104f1565b5090565b600082601f83011261051e57600080fd5b813561053161052c826108c3565b610896565b9150808252602083016020830185838301111561054d57600080fd5b6105588382846109a6565b50505092915050565b600081359050610570816109f9565b92915050565b60006020828403121561058857600080fd5b600082013567ffffffffffffffff8111156105a257600080fd5b6105ae8482850161050d565b91505092915050565b600080604083850312156105ca57600080fd5b600083013567ffffffffffffffff8111156105e457600080fd5b6105f08582860161050d565b925050602061060185828601610561565b9150509250929050565b600061061783836106b2565b905092915050565b61062881610960565b82525050565b6000610639826108ff565b6106438185610922565b935083602082028501610655856108ef565b8060005b858110156106915784840389528151610672858261060b565b945061067d83610915565b925060208a01995050600181019050610659565b50829750879550505050505092915050565b6106ac81610972565b82525050565b60006106bd8261090a565b6106c78185610933565b93506106d78185602086016109b5565b6106e0816109e8565b840191505092915050565b60006106f68261090a565b6107008185610944565b93506107108185602086016109b5565b610719816109e8565b840191505092915050565b600061072f8261090a565b6107398185610955565b93506107498185602086016109b5565b80840191505092915050565b6000610762602e83610944565b91507f4e6f207469656e6573207065726d69736f73207061726120656a65637574617260008301527f20657374612066756e63696f6e2e0000000000000000000000000000000000006020830152604082019050919050565b6107c48161099c565b82525050565b60006107d68284610724565b915081905092915050565b60006020820190506107f6600083018461061f565b92915050565b60006020820190508181036000830152610816818461062e565b905092915050565b600060208201905061083360008301846106a3565b92915050565b6000602082019050818103600083015261085381846106eb565b905092915050565b6000602082019050818103600083015261087481610755565b9050919050565b600060208201905061089060008301846107bb565b92915050565b6000604051905081810181811067ffffffffffffffff821117156108b957600080fd5b8060405250919050565b600067ffffffffffffffff8211156108da57600080fd5b601f19601f8301169050602081019050919050565b6000819050602082019050919050565b600081519050919050565b600081519050919050565b6000602082019050919050565b600082825260208201905092915050565b600082825260208201905092915050565b600082825260208201905092915050565b600081905092915050565b600061096b8261097c565b9050919050565b6000819050919050565b600073ffffffffffffffffffffffffffffffffffffffff82169050919050565b6000819050919050565b82818337600083830152505050565b60005b838110156109d35780820151818401526020810190506109b8565b838111156109e2576000848401525b50505050565b6000601f19601f8301169050919050565b610a028161099c565b8114610a0d57600080fd5b5056fea2646970667358221220048ebc5af4d49ade4837f56eaccef8dd543f5832cb4c7072f1ad887ae56b8b3464736f6c634300060c0033",
  "immutableReferences": {},
  "source": "// SPDX-License-Identifier: MIT\npragma solidity >=0.4.4 < 0.7.0;\npragma experimental ABIEncoderV2;\n\n// -----------------------------------\n//  ALUMNO   |    ID    |      NOTA\n// -----------------------------------\n//  Marcos |    77755N    |      5\n//  Joan   |    12345X    |      9\n//  Maria  |    02468T    |      2\n//  Marta  |    13579U    |      3\n//  Alba   |    98765Z    |      5\n\ncontract notas {\n    \n    // 0x99E32aa19c454bD65ab7A872780Bef6d135b1457\n    // Direccion del profesor\n    address public profesor;\n    \n    // Constructor \n    constructor () public {\n        profesor = msg.sender;\n    }\n    \n    // Mapping para relacionar el hash de la identidad del alumno con su nota del examen\n    mapping (bytes32 => uint) Notas;\n    \n    // Array de los alumnos de pidan revisiones de examen\n    string [] revisiones;\n    \n    // Eventos \n    event alumno_evaluado(bytes32);\n    event evento_revision(string);\n    \n    // Funcion para evaluar a alumnos\n    function Evaluar(string memory _idAlumno, uint _nota) public UnicamenteProfesor(msg.sender){\n        // Hash de la identificacion del alumno \n        bytes32 hash_idAlumno = keccak256(abi.encodePacked(_idAlumno));\n        // Relacion entre el hash de la identificacion del alumno y su nota\n        Notas[hash_idAlumno] = _nota;\n        // Emision del evento\n        emit alumno_evaluado(hash_idAlumno);\n    }\n    \n    // Control de las funciones ejecutables por el profesor\n    modifier UnicamenteProfesor(address _direccion){\n        // Requiere que la direccion introducido por parametro sea igual al owner del contrato\n        require(_direccion == profesor, \"No tienes permisos para ejecutar esta funcion.\");\n        _;\n    }\n    \n    // Funcion para ver las notas de un alumno \n    function VerNotas(string memory _idAlumno) public view returns(uint) {\n        // Hash de la identificacion del alumno \n        bytes32 hash_idAlumno = keccak256(abi.encodePacked(_idAlumno));\n        // Nota asociada al hash del alumno\n        uint nota_alumno = Notas[hash_idAlumno];\n        // Visualizar la nota \n        return nota_alumno;\n    } \n    \n    // Funcion para pedir una revision del examen\n    function Revision(string memory _idAlumno) public {\n        // Almacenamiento de la identidad del alumno en un array\n        revisiones.push(_idAlumno);\n        // Emision del evento \n        emit evento_revision(_idAlumno);\n    }\n    \n    // Funcion para ver los alumnos que han solicitado revision de examen\n    function VerRevisiones() public view UnicamenteProfesor(msg.sender) returns (string [] memory){\n        // Devolver las identidades de los alumnos\n        return revisiones;\n    }\n    \n}",
  "sourcePath": "/Users/joan_amengual/Desktop/notas/contracts/notas.sol",
  "compiler": {
    "name": "solc",
    "version": "0.6.12+commit.27d51765.Emscripten.clang"
  },
  "schemaVersion": "3.4.2",
  "updatedAt": "2021-09-17T11:29:38.250Z",
  "devdoc": {
    "kind": "dev",
    "methods": {},
    "version": 1
  },
  "userdoc": {
    "kind": "user",
    "methods": {},
    "version": 1
  }
}